{"abi":[{"type":"constructor","inputs":[{"name":"_tokenAddress","type":"address","internalType":"address"}],"stateMutability":"nonpayable"},{"type":"function","name":"buyToken","inputs":[],"outputs":[],"stateMutability":"payable"},{"type":"function","name":"owner","inputs":[],"outputs":[{"name":"","type":"address","internalType":"address"}],"stateMutability":"view"},{"type":"function","name":"pause","inputs":[],"outputs":[],"stateMutability":"nonpayable"},{"type":"function","name":"paused","inputs":[],"outputs":[{"name":"","type":"bool","internalType":"bool"}],"stateMutability":"view"},{"type":"function","name":"price","inputs":[],"outputs":[{"name":"","type":"uint256","internalType":"uint256"}],"stateMutability":"view"},{"type":"function","name":"renounceOwnership","inputs":[],"outputs":[],"stateMutability":"nonpayable"},{"type":"function","name":"token","inputs":[],"outputs":[{"name":"","type":"address","internalType":"contract IERC20"}],"stateMutability":"view"},{"type":"function","name":"totalTokensSold","inputs":[],"outputs":[{"name":"","type":"uint256","internalType":"uint256"}],"stateMutability":"view"},{"type":"function","name":"transferOwnership","inputs":[{"name":"newOwner","type":"address","internalType":"address"}],"outputs":[],"stateMutability":"nonpayable"},{"type":"function","name":"unpause","inputs":[],"outputs":[],"stateMutability":"nonpayable"},{"type":"function","name":"withdrawal","inputs":[],"outputs":[],"stateMutability":"nonpayable"},{"type":"event","name":"OwnershipTransferred","inputs":[{"name":"previousOwner","type":"address","indexed":true,"internalType":"address"},{"name":"newOwner","type":"address","indexed":true,"internalType":"address"}],"anonymous":false},{"type":"event","name":"Paused","inputs":[{"name":"account","type":"address","indexed":false,"internalType":"address"}],"anonymous":false},{"type":"event","name":"Unpaused","inputs":[{"name":"account","type":"address","indexed":false,"internalType":"address"}],"anonymous":false},{"type":"error","name":"EnforcedPause","inputs":[]},{"type":"error","name":"ExpectedPause","inputs":[]},{"type":"error","name":"OwnableInvalidOwner","inputs":[{"name":"owner","type":"address","internalType":"address"}]},{"type":"error","name":"OwnableUnauthorizedAccount","inputs":[{"name":"account","type":"address","internalType":"address"}]},{"type":"error","name":"SafeERC20FailedOperation","inputs":[{"name":"token","type":"address","internalType":"address"}]}],"bytecode":{"object":"0x6080604052670de0b6b3a764000060025534801561001b575f5ffd5b50604051610d40380380610d40833981810160405281019061003d9190610225565b335f73ffffffffffffffffffffffffffffffffffffffff168173ffffffffffffffffffffffffffffffffffffffff16036100ae575f6040517f1e4fbdf70000000000000000000000000000000000000000000000000000000081526004016100a5919061025f565b60405180910390fd5b6100bd8161010460201b60201c565b508060015f6101000a81548173ffffffffffffffffffffffffffffffffffffffff021916908373ffffffffffffffffffffffffffffffffffffffff16021790555050610278565b5f5f60019054906101000a900473ffffffffffffffffffffffffffffffffffffffff169050815f60016101000a81548173ffffffffffffffffffffffffffffffffffffffff021916908373ffffffffffffffffffffffffffffffffffffffff1602179055508173ffffffffffffffffffffffffffffffffffffffff168173ffffffffffffffffffffffffffffffffffffffff167f8be0079c531659141344cd1fd0a4f28419497f9722a3daafe3b4186f6b6457e060405160405180910390a35050565b5f5ffd5b5f73ffffffffffffffffffffffffffffffffffffffff82169050919050565b5f6101f4826101cb565b9050919050565b610204816101ea565b811461020e575f5ffd5b50565b5f8151905061021f816101fb565b92915050565b5f6020828403121561023a576102396101c7565b5b5f61024784828501610211565b91505092915050565b610259816101ea565b82525050565b5f6020820190506102725f830184610250565b92915050565b610abb806102855f395ff3fe60806040526004361061009b575f3560e01c80638da5cb5b116100635780638da5cb5b14610135578063a035b1fe1461015f578063a482171914610189578063d4e9329214610193578063f2fde38b146101a9578063fc0c546a146101d15761009b565b80633f4ba83a1461009f5780635c975abb146100b557806363b20117146100df578063715018a6146101095780638456cb591461011f575b5f5ffd5b3480156100aa575f5ffd5b506100b36101fb565b005b3480156100c0575f5ffd5b506100c961020d565b6040516100d691906107e3565b60405180910390f35b3480156100ea575f5ffd5b506100f3610221565b6040516101009190610814565b60405180910390f35b348015610114575f5ffd5b5061011d610227565b005b34801561012a575f5ffd5b5061013361023a565b005b348015610140575f5ffd5b5061014961024c565b604051610156919061086c565b60405180910390f35b34801561016a575f5ffd5b50610173610274565b6040516101809190610814565b60405180910390f35b61019161027a565b005b34801561019e575f5ffd5b506101a761031b565b005b3480156101b4575f5ffd5b506101cf60048036038101906101ca91906108b3565b610370565b005b3480156101dc575f5ffd5b506101e56103f4565b6040516101f29190610939565b60405180910390f35b610203610419565b61020b6104a0565b565b5f5f5f9054906101000a900460ff16905090565b60035481565b61022f610419565b6102385f610500565b565b610242610419565b61024a6105c3565b565b5f5f60019054906101000a900473ffffffffffffffffffffffffffffffffffffffff16905090565b60025481565b610282610624565b5f3490505f670de0b6b3a76400006002548361029e91906109ac565b6102a891906109dc565b90506102ff6102b561024c565b338360015f9054906101000a900473ffffffffffffffffffffffffffffffffffffffff1673ffffffffffffffffffffffffffffffffffffffff16610665909392919063ffffffff16565b8060035f8282546103109190610a1d565b925050819055505050565b610323610419565b61032b61024c565b73ffffffffffffffffffffffffffffffffffffffff166108fc4790811502906040515f60405180830381858888f1935050505015801561036d573d5f5f3e3d5ffd5b50565b610378610419565b5f73ffffffffffffffffffffffffffffffffffffffff168173ffffffffffffffffffffffffffffffffffffffff16036103e8575f6040517f1e4fbdf70000000000000000000000000000000000000000000000000000000081526004016103df919061086c565b60405180910390fd5b6103f181610500565b50565b60015f9054906101000a900473ffffffffffffffffffffffffffffffffffffffff1681565b6104216106e7565b73ffffffffffffffffffffffffffffffffffffffff1661043f61024c565b73ffffffffffffffffffffffffffffffffffffffff161461049e576104626106e7565b6040517f118cdaa7000000000000000000000000000000000000000000000000000000008152600401610495919061086c565b60405180910390fd5b565b6104a86106ee565b5f5f5f6101000a81548160ff0219169083151502179055507f5db9ee0a495bf2e6ff9c91a7834c1ba4fdd244a5e8aa4e537bd38aeae4b073aa6104e96106e7565b6040516104f6919061086c565b60405180910390a1565b5f5f60019054906101000a900473ffffffffffffffffffffffffffffffffffffffff169050815f60016101000a81548173ffffffffffffffffffffffffffffffffffffffff021916908373ffffffffffffffffffffffffffffffffffffffff1602179055508173ffffffffffffffffffffffffffffffffffffffff168173ffffffffffffffffffffffffffffffffffffffff167f8be0079c531659141344cd1fd0a4f28419497f9722a3daafe3b4186f6b6457e060405160405180910390a35050565b6105cb610624565b60015f5f6101000a81548160ff0219169083151502179055507f62e78cea01bee320cd4e420270b5ea74000d11b0c9f74754ebdbfc544b05a25861060d6106e7565b60405161061a919061086c565b60405180910390a1565b61062c61020d565b15610663576040517fd93c066500000000000000000000000000000000000000000000000000000000815260040160405180910390fd5b565b6106e1848573ffffffffffffffffffffffffffffffffffffffff166323b872dd86868660405160240161069a93929190610a50565b604051602081830303815290604052915060e01b6020820180517bffffffffffffffffffffffffffffffffffffffffffffffffffffffff838183161783525050505061072e565b50505050565b5f33905090565b6106f661020d565b61072c576040517f8dfc202b00000000000000000000000000000000000000000000000000000000815260040160405180910390fd5b565b5f5f60205f8451602086015f885af18061074d576040513d5f823e3d81fd5b3d92505f519150505f8214610766576001811415610781565b5f8473ffffffffffffffffffffffffffffffffffffffff163b145b156107c357836040517f5274afe70000000000000000000000000000000000000000000000000000000081526004016107ba919061086c565b60405180910390fd5b50505050565b5f8115159050919050565b6107dd816107c9565b82525050565b5f6020820190506107f65f8301846107d4565b92915050565b5f819050919050565b61080e816107fc565b82525050565b5f6020820190506108275f830184610805565b92915050565b5f73ffffffffffffffffffffffffffffffffffffffff82169050919050565b5f6108568261082d565b9050919050565b6108668161084c565b82525050565b5f60208201905061087f5f83018461085d565b92915050565b5f5ffd5b6108928161084c565b811461089c575f5ffd5b50565b5f813590506108ad81610889565b92915050565b5f602082840312156108c8576108c7610885565b5b5f6108d58482850161089f565b91505092915050565b5f819050919050565b5f6109016108fc6108f78461082d565b6108de565b61082d565b9050919050565b5f610912826108e7565b9050919050565b5f61092382610908565b9050919050565b61093381610919565b82525050565b5f60208201905061094c5f83018461092a565b92915050565b7f4e487b71000000000000000000000000000000000000000000000000000000005f52601260045260245ffd5b7f4e487b71000000000000000000000000000000000000000000000000000000005f52601160045260245ffd5b5f6109b6826107fc565b91506109c1836107fc565b9250826109d1576109d0610952565b5b828204905092915050565b5f6109e6826107fc565b91506109f1836107fc565b92508282026109ff816107fc565b91508282048414831517610a1657610a1561097f565b5b5092915050565b5f610a27826107fc565b9150610a32836107fc565b9250828201905080821115610a4a57610a4961097f565b5b92915050565b5f606082019050610a635f83018661085d565b610a70602083018561085d565b610a7d6040830184610805565b94935050505056fea26469706673582212205ab3c657c0cfb8852eaa26f898588e75153349b0a450324e8b358a53ab3c0cd464736f6c634300081c0033","linkReferences":{}},"methodIdentifiers":{"buyToken()":"a4821719","owner()":"8da5cb5b","pause()":"8456cb59","paused()":"5c975abb","price()":"a035b1fe","renounceOwnership()":"715018a6","token()":"fc0c546a","totalTokensSold()":"63b20117","transferOwnership(address)":"f2fde38b","unpause()":"3f4ba83a","withdrawal()":"d4e93292"},"id":28}